{
  "_format": "hh-sol-artifact-1",
  "contractName": "GAMEBRAINV2",
  "sourceName": "contracts/GAMEBRAIN.sol",
  "abi": [
    {
      "inputs": [
        {
          "internalType": "uint256",
          "name": "_price",
          "type": "uint256"
        },
        {
          "internalType": "address",
          "name": "_signer",
          "type": "address"
        }
      ],
      "stateMutability": "nonpayable",
      "type": "constructor"
    },
    {
      "anonymous": false,
      "inputs": [
        {
          "indexed": true,
          "internalType": "address",
          "name": "from",
          "type": "address"
        },
        {
          "indexed": false,
          "internalType": "uint256",
          "name": "value",
          "type": "uint256"
        }
      ],
      "name": "Deposit",
      "type": "event"
    },
    {
      "inputs": [
        {
          "internalType": "uint256",
          "name": "_amount",
          "type": "uint256"
        }
      ],
      "name": "buyAndDepositTokens",
      "outputs": [],
      "stateMutability": "payable",
      "type": "function"
    },
    {
      "inputs": [
        {
          "internalType": "uint256",
          "name": "_amount",
          "type": "uint256"
        }
      ],
      "name": "buyTokens",
      "outputs": [],
      "stateMutability": "payable",
      "type": "function"
    },
    {
      "inputs": [
        {
          "internalType": "address",
          "name": "_owner",
          "type": "address"
        }
      ],
      "name": "changeOwner",
      "outputs": [],
      "stateMutability": "nonpayable",
      "type": "function"
    },
    {
      "inputs": [
        {
          "internalType": "uint256",
          "name": "_newPrice",
          "type": "uint256"
        }
      ],
      "name": "changePrice",
      "outputs": [],
      "stateMutability": "nonpayable",
      "type": "function"
    },
    {
      "inputs": [
        {
          "internalType": "address",
          "name": "_newSigner",
          "type": "address"
        }
      ],
      "name": "changeSigner",
      "outputs": [],
      "stateMutability": "nonpayable",
      "type": "function"
    },
    {
      "inputs": [
        {
          "internalType": "uint256",
          "name": "amountUser",
          "type": "uint256"
        },
        {
          "internalType": "uint256",
          "name": "amountHouse",
          "type": "uint256"
        },
        {
          "internalType": "uint256",
          "name": "nonce",
          "type": "uint256"
        },
        {
          "internalType": "bytes",
          "name": "sig",
          "type": "bytes"
        }
      ],
      "name": "claimTokens",
      "outputs": [],
      "stateMutability": "nonpayable",
      "type": "function"
    },
    {
      "inputs": [],
      "name": "price",
      "outputs": [
        {
          "internalType": "uint256",
          "name": "",
          "type": "uint256"
        }
      ],
      "stateMutability": "view",
      "type": "function"
    },
    {
      "inputs": [
        {
          "internalType": "address",
          "name": "_token",
          "type": "address"
        },
        {
          "internalType": "uint256",
          "name": "tokensPerUser",
          "type": "uint256"
        }
      ],
      "name": "setAndInitToken",
      "outputs": [],
      "stateMutability": "nonpayable",
      "type": "function"
    }
  ],
  "bytecode": "0x608060405234801561001057600080fd5b50604051610e34380380610e3483398101604081905261002f91610065565b60018054336001600160a01b031991821617909155600080549091166001600160a01b03929092169190911790556003556100a0565b60008060408385031215610077578182fd5b825160208401519092506001600160a01b0381168114610095578182fd5b809150509250929050565b610d85806100af6000396000f3fe60806040526004361061007b5760003560e01c8063a035b1fe1161004e578063a035b1fe146100e8578063a2b40d1914610110578063a6f9dae114610130578063aad2b7231461015057600080fd5b8063025da131146100805780633610724e146100a257806356776ea3146100b55780635ad10c7c146100d5575b600080fd5b34801561008c57600080fd5b506100a061009b366004610c47565b610170565b005b6100a06100b0366004610c2f565b610477565b3480156100c157600080fd5b506100a06100d0366004610be6565b61067e565b6100a06100e3366004610c2f565b6107b6565b3480156100f457600080fd5b506100fe60035481565b60405190815260200160405180910390f35b34801561011c57600080fd5b506100a061012b366004610c2f565b6109eb565b34801561013c57600080fd5b506100a061014b366004610bc5565b610a3b565b34801561015c57600080fd5b506100a061016b366004610bc5565b610a81565b600254600160a01b900460ff1615156001146101d35760405162461bcd60e51b815260206004820152601660248201527f436f6e7472616374204e6f74204163746976617465640000000000000000000060448201526064015b60405180910390fd5b60008281526004602052604090205460ff16156102325760405162461bcd60e51b815260206004820152601660248201527f546f6b656e7320416c726561647920436c61696d65640000000000000000000060448201526064016101ca565b60008281526004602090815260408083208054600160ff1990911617905580516bffffffffffffffffffffffff1933606090811b821683860152603483018a9052605483018990526074830188905230901b1660948201528151608881830301815260a8820183528051908401207f19457468657265756d205369676e6564204d6573736167653a0a33320000000060c883015260e48083019190915282518083039091018152610104909101909152805191012090546001600160a01b03166102fc8284610afb565b6001600160a01b0316146103525760405162461bcd60e51b815260206004820152601860248201527f5369676e6174757265204e6f742041757468656e7469632e000000000000000060448201526064016101ca565b60025460405163a9059cbb60e01b8152336004820152602481018790526001600160a01b039091169063a9059cbb90604401602060405180830381600087803b15801561039e57600080fd5b505af11580156103b2573d6000803e3d6000fd5b505050506040513d601f19601f820116820180604052508101906103d69190610c0f565b6103df57600080fd5b60025460015460405163a9059cbb60e01b81526001600160a01b0391821660048201526024810187905291169063a9059cbb90604401602060405180830381600087803b15801561042f57600080fd5b505af1158015610443573d6000803e3d6000fd5b505050506040513d601f19601f820116820180604052508101906104679190610c0f565b61047057600080fd5b5050505050565b600254600160a01b900460ff1615156001146104d55760405162461bcd60e51b815260206004820152601660248201527f436f6e7472616374204e6f74204163746976617465640000000000000000000060448201526064016101ca565b806104df57600080fd5b34600354826104ee9190610d0e565b1461053b5760405162461bcd60e51b815260206004820152601560248201527f4e6f7420456e6f756768204d6f6e65792073656e74000000000000000000000060448201526064016101ca565b6002546001600160a01b031663f0dda65c3361055f84670de0b6b3a7640000610d0e565b6040517fffffffff0000000000000000000000000000000000000000000000000000000060e085901b1681526001600160a01b0390921660048301526024820152604401600060405180830381600087803b1580156105bd57600080fd5b505af11580156105d1573d6000803e3d6000fd5b5050600154604051600093506001600160a01b03909116915034908381818185875af1925050503d8060008114610624576040519150601f19603f3d011682016040523d82523d6000602084013e610629565b606091505b505090508061067a5760405162461bcd60e51b815260206004820152601060248201527f5472616e73666572206661696c65642e0000000000000000000000000000000060448201526064016101ca565b5050565b6001546001600160a01b031633146106c95760405162461bcd60e51b815260206004820152600e60248201526d139bdd08105d5d1a1bdc9a5e995960921b60448201526064016101ca565b61070c82600280547fffffffffffffffffffffff000000000000000000000000000000000000000000166001600160a01b0390921691909117600160a01b179055565b6002546001600160a01b031663f0dda65c3061072a84610378610d0e565b61073c90670de0b6b3a7640000610d0e565b6040517fffffffff0000000000000000000000000000000000000000000000000000000060e085901b1681526001600160a01b0390921660048301526024820152604401600060405180830381600087803b15801561079a57600080fd5b505af11580156107ae573d6000803e3d6000fd5b505050505050565b600254600160a01b900460ff1615156001146108145760405162461bcd60e51b815260206004820152601660248201527f436f6e7472616374204e6f74204163746976617465640000000000000000000060448201526064016101ca565b8061081e57600080fd5b346003548261082d9190610d0e565b1461087a5760405162461bcd60e51b815260206004820152601560248201527f4e6f7420456e6f756768204d6f6e65792073656e74000000000000000000000060448201526064016101ca565b600061088e82670de0b6b3a7640000610d0e565b6002546040517ff0dda65c000000000000000000000000000000000000000000000000000000008152306004820152602481018390529192506001600160a01b03169063f0dda65c90604401600060405180830381600087803b1580156108f457600080fd5b505af1158015610908573d6000803e3d6000fd5b5050600154604051600093506001600160a01b03909116915034908381818185875af1925050503d806000811461095b576040519150601f19603f3d011682016040523d82523d6000602084013e610960565b606091505b50509050806109b15760405162461bcd60e51b815260206004820152601060248201527f5472616e73666572206661696c65642e0000000000000000000000000000000060448201526064016101ca565b60405182815233907fe1fffcc4923d04b559f4d29a8bfc6cda04eb5b0d3c460751c2402c5c5cc9109c9060200160405180910390a2505050565b6001546001600160a01b03163314610a365760405162461bcd60e51b815260206004820152600e60248201526d139bdd08105d5d1a1bdc9a5e995960921b60448201526064016101ca565b600355565b6001546001600160a01b03163314610a5257600080fd5b6001805473ffffffffffffffffffffffffffffffffffffffff19166001600160a01b0392909216919091179055565b6001546001600160a01b03163314610acc5760405162461bcd60e51b815260206004820152600e60248201526d139bdd08105d5d1a1bdc9a5e995960921b60448201526064016101ca565b6000805473ffffffffffffffffffffffffffffffffffffffff19166001600160a01b0392909216919091179055565b600080600080610b0a85610b7a565b6040805160008152602081018083528b905260ff8516918101919091526060810183905260808101829052929550909350915060019060a0016020604051602081039080840390855afa158015610b65573d6000803e3d6000fd5b5050604051601f190151979650505050505050565b60008060008351604114610b8d57600080fd5b5050506020810151604082015160609092015160001a92909190565b80356001600160a01b0381168114610bc057600080fd5b919050565b600060208284031215610bd6578081fd5b610bdf82610ba9565b9392505050565b60008060408385031215610bf8578081fd5b610c0183610ba9565b946020939093013593505050565b600060208284031215610c20578081fd5b81518015158114610bdf578182fd5b600060208284031215610c40578081fd5b5035919050565b60008060008060808587031215610c5c578182fd5b843593506020850135925060408501359150606085013567ffffffffffffffff80821115610c88578283fd5b818701915087601f830112610c9b578283fd5b813581811115610cad57610cad610d39565b604051601f8201601f19908116603f01168101908382118183101715610cd557610cd5610d39565b816040528281528a6020848701011115610ced578586fd5b82602086016020830137918201602001949094529598949750929550505050565b6000816000190483118215151615610d3457634e487b7160e01b81526011600452602481fd5b500290565b634e487b7160e01b600052604160045260246000fdfea2646970667358221220ace4bc16c3b6f46ed7a76c15f375e9e2d896b42e82d8ec3af52eb966d96fc56064736f6c63430008040033",
  "linkReferences": {},
  "deployedLinkReferences": {}
}