{
  "_format": "hh-sol-artifact-1",
  "contractName": "AFTERMARKETV2",
  "sourceName": "contracts/AFTERMARKETV2.sol",
  "abi": [
    {
      "inputs": [
        {
          "internalType": "address",
          "name": "_targetToken",
          "type": "address"
        },
        {
          "internalType": "uint256",
          "name": "_price",
          "type": "uint256"
        },
        {
          "internalType": "uint256",
          "name": "_tokenDecimals",
          "type": "uint256"
        },
        {
          "internalType": "uint256",
          "name": "_housePercentage",
          "type": "uint256"
        }
      ],
      "stateMutability": "nonpayable",
      "type": "constructor"
    },
    {
      "inputs": [],
      "name": "amountSupplied",
      "outputs": [
        {
          "internalType": "uint256",
          "name": "",
          "type": "uint256"
        }
      ],
      "stateMutability": "view",
      "type": "function"
    },
    {
      "inputs": [
        {
          "internalType": "address",
          "name": "newManager",
          "type": "address"
        }
      ],
      "name": "changeManager",
      "outputs": [],
      "stateMutability": "nonpayable",
      "type": "function"
    },
    {
      "inputs": [],
      "name": "currentSupply",
      "outputs": [
        {
          "internalType": "uint256",
          "name": "",
          "type": "uint256"
        }
      ],
      "stateMutability": "view",
      "type": "function"
    },
    {
      "inputs": [
        {
          "internalType": "uint256",
          "name": "_amount",
          "type": "uint256"
        }
      ],
      "name": "fullFillOrderWithFallBack",
      "outputs": [],
      "stateMutability": "payable",
      "type": "function"
    },
    {
      "inputs": [],
      "name": "getSuppliersAmount",
      "outputs": [
        {
          "internalType": "uint256",
          "name": "",
          "type": "uint256"
        }
      ],
      "stateMutability": "view",
      "type": "function"
    },
    {
      "inputs": [
        {
          "internalType": "uint256",
          "name": "",
          "type": "uint256"
        }
      ],
      "name": "indexToSupplier",
      "outputs": [
        {
          "internalType": "address",
          "name": "",
          "type": "address"
        }
      ],
      "stateMutability": "view",
      "type": "function"
    },
    {
      "inputs": [],
      "name": "manager",
      "outputs": [
        {
          "internalType": "address",
          "name": "",
          "type": "address"
        }
      ],
      "stateMutability": "view",
      "type": "function"
    },
    {
      "inputs": [],
      "name": "price",
      "outputs": [
        {
          "internalType": "uint256",
          "name": "",
          "type": "uint256"
        }
      ],
      "stateMutability": "view",
      "type": "function"
    },
    {
      "inputs": [
        {
          "internalType": "address",
          "name": "",
          "type": "address"
        }
      ],
      "name": "supplierToIndex",
      "outputs": [
        {
          "internalType": "uint256",
          "name": "",
          "type": "uint256"
        }
      ],
      "stateMutability": "view",
      "type": "function"
    },
    {
      "inputs": [
        {
          "internalType": "uint256",
          "name": "supplyAmount",
          "type": "uint256"
        }
      ],
      "name": "supplyToken",
      "outputs": [],
      "stateMutability": "nonpayable",
      "type": "function"
    },
    {
      "inputs": [
        {
          "internalType": "uint256",
          "name": "newPrice",
          "type": "uint256"
        }
      ],
      "name": "updatePrice",
      "outputs": [],
      "stateMutability": "nonpayable",
      "type": "function"
    },
    {
      "inputs": [
        {
          "internalType": "uint256",
          "name": "withdrawAmount",
          "type": "uint256"
        }
      ],
      "name": "withdrawToken",
      "outputs": [],
      "stateMutability": "nonpayable",
      "type": "function"
    }
  ],
  "bytecode": "0x60a060405234801561001057600080fd5b5060405161138538038061138583398101604081905261002f91610064565b60609390931b6001600160601b03191660805260065560045560058054336001600160a01b03199091161790556007556100ad565b60008060008060808587031215610079578384fd5b84516001600160a01b038116811461008f578485fd5b60208601516040870151606090970151919890975090945092505050565b60805160601c6112a56100e0600039600081816102aa015281816104ff0152818161080e0152610b6901526112a56000f3fe6080604052600436106100c75760003560e01c8063976ffa2711610074578063a035b1fe1161004e578063a035b1fe146101f9578063a3fbbaae1461020f578063db4f702b1461022f57600080fd5b8063976ffa27146101a457806399465bc8146101d15780639ec8ef77146101e457600080fd5b8063771282f6116100a5578063771282f61461014b578063790391de1461016f5780638d6cc56d1461018457600080fd5b806305322503146100cc578063481c6a75146100ee57806350baa6221461012b575b600080fd5b3480156100d857600080fd5b506100ec6100e73660046110cb565b610265565b005b3480156100fa57600080fd5b5060055461010e906001600160a01b031681565b6040516001600160a01b0390911681526020015b60405180910390f35b34801561013757600080fd5b506100ec6101463660046110cb565b610448565b34801561015757600080fd5b5061016160035481565b604051908152602001610122565b34801561017b57600080fd5b50600254610161565b34801561019057600080fd5b506100ec61019f3660046110cb565b610690565b3480156101b057600080fd5b506101616101bf36600461107d565b60006020819052908152604090205481565b6100ec6101df3660046110cb565b6106ac565b3480156101f057600080fd5b506101616108c2565b34801561020557600080fd5b5061016160045481565b34801561021b57600080fd5b506100ec61022a36600461107d565b61098c565b34801561023b57600080fd5b5061010e61024a3660046110cb565b6001602052600090815260409020546001600160a01b031681565b8061026f57600080fd5b6040517f23b872dd000000000000000000000000000000000000000000000000000000008152336004820152306024820152604481018290527f00000000000000000000000000000000000000000000000000000000000000006001600160a01b0316906323b872dd90606401602060405180830381600087803b1580156102f657600080fd5b505af115801561030a573d6000803e3d6000fd5b505050506040513d601f19601f8201168201806040525081019061032e91906110ab565b61037f5760405162461bcd60e51b815260206004820152600f60248201527f5452414e53464552204641494c4544000000000000000000000000000000000060448201526064015b60405180910390fd5b6002600654600a610390919061115e565b61039a90836110fb565b815460018101835560009283526020909220909101556006546103be90600a61115e565b6103c890826110fb565b600360008282546103d991906110e3565b90915550506002546103ed90600190611227565b336000818152602081905260408120929092556002549091600191610413908390611227565b815260200190815260200160002060006101000a8154816001600160a01b0302191690836001600160a01b0316021790555050565b336000818152602081815260408083205480845260019092529091205490916001600160a01b03909116146104c95760405162461bcd60e51b815260206004820152602160248201527f596f7520446f6e74204861766520416e7920546f6b656e7320537570706c69656044820152601960fa1b6064820152608401610376565b6000818152600160205260409081902054905163a9059cbb60e01b81526001600160a01b039182166004820152602481018490527f00000000000000000000000000000000000000000000000000000000000000009091169063a9059cbb90604401602060405180830381600087803b15801561054557600080fd5b505af1158015610559573d6000803e3d6000fd5b505050506040513d601f19601f8201168201806040525081019061057d91906110ab565b6105c95760405162461bcd60e51b815260206004820152600f60248201527f7472616e73666572206661696c656400000000000000000000000000000000006044820152606401610376565b6006546105d790600a61115e565b6105e190836110fb565b6002828154811061060257634e487b7160e01b600052603260045260246000fd5b90600052602060002001600082825461061b9190611227565b9091555050600280548290811061064257634e487b7160e01b600052603260045260246000fd5b90600052602060002001546000141561065e5761065e816109d2565b60065461066c90600a61115e565b61067690836110fb565b600360008282546106879190611227565b90915550505050565b6005546001600160a01b031633146106a757600080fd5b600455565b6000600654600a6106bd919061115e565b6106c790836110fb565b905034600454826106d89190611208565b146107255760405162461bcd60e51b815260206004820152601060248201527f6e6f7420456e6f756768205061796564000000000000000000000000000000006044820152606401610376565b600354811161073b5761073781610afb565b5050565b60006003548261074b9190611227565b905060035460001461076257610762600354610afb565b6005546004546000916001600160a01b03169061077f9084611208565b604051600081818185875af1925050503d80600081146107bb576040519150601f19603f3d011682016040523d82523d6000602084013e6107c0565b606091505b50509050806108045760405162461bcd60e51b815260206004820152601060248201526f2a3930b739b332b9103330b4b632b21760811b6044820152606401610376565b6001600160a01b037f00000000000000000000000000000000000000000000000000000000000000001663f0dda65c3361084685670de0b6b3a7640000611208565b6040517fffffffff0000000000000000000000000000000000000000000000000000000060e085901b1681526001600160a01b0390921660048301526024820152604401600060405180830381600087803b1580156108a457600080fd5b505af11580156108b8573d6000803e3d6000fd5b5050505050505050565b33600081815260208181526040808320548084526001909252822054919290916001600160a01b0316146109425760405162461bcd60e51b815260206004820152602160248201527f596f7520446f6e74204861766520416e7920546f6b656e7320537570706c69656044820152601960fa1b6064820152608401610376565b60065461095090600a61115e565b6002828154811061097157634e487b7160e01b600052603260045260246000fd5b90600052602060002001546109869190611208565b91505090565b6005546001600160a01b031633146109a357600080fd5b6005805473ffffffffffffffffffffffffffffffffffffffff19166001600160a01b0392909216919091179055565b805b6002546109e390600190611227565b811015610ac25760026109f78260016110e3565b81548110610a1557634e487b7160e01b600052603260045260246000fd5b906000526020600020015460028281548110610a4157634e487b7160e01b600052603260045260246000fd5b6000918252602082200191909155600190610a5c83836110e3565b8152602080820192909252604090810160009081205484825260018452828220805473ffffffffffffffffffffffffffffffffffffffff19166001600160a01b039092169182179055815291829052902081905580610aba8161123e565b9150506109d4565b506002805480610ae257634e487b7160e01b600052603160045260246000fd5b6001900381819060005260206000200160009055905550565b600354811115610b4d5760405162461bcd60e51b815260206004820152601160248201527f6e6f7420456e6f75676820537570706c790000000000000000000000000000006044820152606401610376565b60405163a9059cbb60e01b8152336004820152602481018290527f00000000000000000000000000000000000000000000000000000000000000006001600160a01b03169063a9059cbb90604401602060405180830381600087803b158015610bb557600080fd5b505af1158015610bc9573d6000803e3d6000fd5b505050506040513d601f19601f82011682018060405250810190610bed91906110ab565b610c395760405162461bcd60e51b815260206004820152601160248201527f6e6f7420656e6f75676820746f6b656e730000000000000000000000000000006044820152606401610376565b610c4281610c45565b50565b600080825b838314611077576000604051806040016040528060028581548110610c7f57634e487b7160e01b600052603260045260246000fd5b60009182526020808320909101548352868252600181526040909120546001600160a01b03169101528051909150821015610eaf5760008290508060036000828254610ccb9190611227565b925050819055508060028581548110610cf457634e487b7160e01b600052603260045260246000fd5b906000526020600020016000828254610d0d9190611227565b90915550610d1d90508184611227565b9250610d2981866110e3565b9450600060045482610d3b9190611208565b9050600083602001516001600160a01b0316606460075484610d5d9190611208565b610d6791906110fb565b604051600081818185875af1925050503d8060008114610da3576040519150601f19603f3d011682016040523d82523d6000602084013e610da8565b606091505b5050905080610dec5760405162461bcd60e51b815260206004820152601060248201526f2a3930b739b332b9103330b4b632b21760811b6044820152606401610376565b600084602001516001600160a01b031660646007546064610e0d9190611227565b610e179086611208565b610e2191906110fb565b604051600081818185875af1925050503d8060008114610e5d576040519150601f19603f3d011682016040523d82523d6000602084013e610e62565b606091505b5050905080610ea65760405162461bcd60e51b815260206004820152601060248201526f2a3930b739b332b9103330b4b632b21760811b6044820152606401610376565b50505050611071565b8051610ebb8184611227565b9250816000015160036000828254610ed39190611227565b90915550610ee3905060006109d2565b8151610eef90866110e3565b9450600060045482610f019190611208565b9050600083602001516001600160a01b0316606460075484610f239190611208565b610f2d91906110fb565b604051600081818185875af1925050503d8060008114610f69576040519150601f19603f3d011682016040523d82523d6000602084013e610f6e565b606091505b5050905080610fb25760405162461bcd60e51b815260206004820152601060248201526f2a3930b739b332b9103330b4b632b21760811b6044820152606401610376565b600084602001516001600160a01b031660646007546064610fd39190611227565b610fdd9086611208565b610fe791906110fb565b604051600081818185875af1925050503d8060008114611023576040519150601f19603f3d011682016040523d82523d6000602084013e611028565b606091505b505090508061106c5760405162461bcd60e51b815260206004820152601060248201526f2a3930b739b332b9103330b4b632b21760811b6044820152606401610376565b505050505b50610c4a565b50505050565b60006020828403121561108e578081fd5b81356001600160a01b03811681146110a4578182fd5b9392505050565b6000602082840312156110bc578081fd5b815180151581146110a4578182fd5b6000602082840312156110dc578081fd5b5035919050565b600082198211156110f6576110f6611259565b500190565b60008261111657634e487b7160e01b81526012600452602481fd5b500490565b600181815b8085111561115657816000190482111561113c5761113c611259565b8085161561114957918102915b93841c9390800290611120565b509250929050565b60006110a4838360008261117457506001611202565b8161118157506000611202565b816001811461119757600281146111a1576111bd565b6001915050611202565b60ff8411156111b2576111b2611259565b50506001821b611202565b5060208310610133831016604e8410600b84101617156111e0575081810a611202565b6111ea838361111b565b80600019048211156111fe576111fe611259565b0290505b92915050565b600081600019048311821515161561122257611222611259565b500290565b60008282101561123957611239611259565b500390565b600060001982141561125257611252611259565b5060010190565b634e487b7160e01b600052601160045260246000fdfea2646970667358221220d41ad8b2bb7ae11665f6b7762acc1545580a4e4a3bd77407f44e82d698124e6764736f6c63430008040033",
  "linkReferences": {},
  "deployedLinkReferences": {}
}