{
  "_format": "hh-sol-artifact-1",
  "contractName": "AFTERMARKET",
  "sourceName": "contracts/AFTERMARKET.sol",
  "abi": [
    {
      "inputs": [
        {
          "internalType": "address",
          "name": "_targetToken",
          "type": "address"
        },
        {
          "internalType": "uint256",
          "name": "_price",
          "type": "uint256"
        },
        {
          "internalType": "uint256",
          "name": "_tokenDecimals",
          "type": "uint256"
        }
      ],
      "stateMutability": "nonpayable",
      "type": "constructor"
    },
    {
      "inputs": [],
      "name": "amountSupplied",
      "outputs": [
        {
          "internalType": "uint256",
          "name": "",
          "type": "uint256"
        }
      ],
      "stateMutability": "view",
      "type": "function"
    },
    {
      "inputs": [
        {
          "internalType": "address",
          "name": "newManager",
          "type": "address"
        }
      ],
      "name": "changeManager",
      "outputs": [],
      "stateMutability": "nonpayable",
      "type": "function"
    },
    {
      "inputs": [],
      "name": "currentSupply",
      "outputs": [
        {
          "internalType": "uint256",
          "name": "",
          "type": "uint256"
        }
      ],
      "stateMutability": "view",
      "type": "function"
    },
    {
      "inputs": [
        {
          "internalType": "uint256",
          "name": "_amount",
          "type": "uint256"
        }
      ],
      "name": "fullFillOrderWithFallBack",
      "outputs": [],
      "stateMutability": "payable",
      "type": "function"
    },
    {
      "inputs": [],
      "name": "getSuppliersAmount",
      "outputs": [
        {
          "internalType": "uint256",
          "name": "",
          "type": "uint256"
        }
      ],
      "stateMutability": "view",
      "type": "function"
    },
    {
      "inputs": [
        {
          "internalType": "uint256",
          "name": "",
          "type": "uint256"
        }
      ],
      "name": "indexToSupplier",
      "outputs": [
        {
          "internalType": "address",
          "name": "",
          "type": "address"
        }
      ],
      "stateMutability": "view",
      "type": "function"
    },
    {
      "inputs": [],
      "name": "manager",
      "outputs": [
        {
          "internalType": "address",
          "name": "",
          "type": "address"
        }
      ],
      "stateMutability": "view",
      "type": "function"
    },
    {
      "inputs": [],
      "name": "price",
      "outputs": [
        {
          "internalType": "uint256",
          "name": "",
          "type": "uint256"
        }
      ],
      "stateMutability": "view",
      "type": "function"
    },
    {
      "inputs": [
        {
          "internalType": "address",
          "name": "",
          "type": "address"
        }
      ],
      "name": "supplierToIndex",
      "outputs": [
        {
          "internalType": "uint256",
          "name": "",
          "type": "uint256"
        }
      ],
      "stateMutability": "view",
      "type": "function"
    },
    {
      "inputs": [
        {
          "internalType": "uint256",
          "name": "supplyAmount",
          "type": "uint256"
        }
      ],
      "name": "supplyToken",
      "outputs": [],
      "stateMutability": "nonpayable",
      "type": "function"
    },
    {
      "inputs": [
        {
          "internalType": "uint256",
          "name": "newPrice",
          "type": "uint256"
        }
      ],
      "name": "updatePrice",
      "outputs": [],
      "stateMutability": "nonpayable",
      "type": "function"
    },
    {
      "inputs": [
        {
          "internalType": "uint256",
          "name": "withdrawAmount",
          "type": "uint256"
        }
      ],
      "name": "withdrawToken",
      "outputs": [],
      "stateMutability": "nonpayable",
      "type": "function"
    }
  ],
  "bytecode": "0x60a060405234801561001057600080fd5b506040516111d63803806111d683398101604081905261002f91610064565b60609290921b6001600160601b03191660805260069190915560045560058054336001600160a01b03199091161790556100a5565b600080600060608486031215610078578283fd5b83516001600160a01b038116811461008e578384fd5b602085015160409095015190969495509392505050565b60805160601c6110fe6100d8600039600081816102aa015281816104ff0152818161080e0152610b7e01526110fe6000f3fe6080604052600436106100c75760003560e01c8063976ffa2711610074578063a035b1fe1161004e578063a035b1fe146101f9578063a3fbbaae1461020f578063db4f702b1461022f57600080fd5b8063976ffa27146101a457806399465bc8146101d15780639ec8ef77146101e457600080fd5b8063771282f6116100a5578063771282f61461014b578063790391de1461016f5780638d6cc56d1461018457600080fd5b806305322503146100cc578063481c6a75146100ee57806350baa6221461012b575b600080fd5b3480156100d857600080fd5b506100ec6100e7366004610f24565b610265565b005b3480156100fa57600080fd5b5060055461010e906001600160a01b031681565b6040516001600160a01b0390911681526020015b60405180910390f35b34801561013757600080fd5b506100ec610146366004610f24565b610448565b34801561015757600080fd5b5061016160035481565b604051908152602001610122565b34801561017b57600080fd5b50600254610161565b34801561019057600080fd5b506100ec61019f366004610f24565b610690565b3480156101b057600080fd5b506101616101bf366004610ed6565b60006020819052908152604090205481565b6100ec6101df366004610f24565b6106ac565b3480156101f057600080fd5b506101616108ba565b34801561020557600080fd5b5061016160045481565b34801561021b57600080fd5b506100ec61022a366004610ed6565b610984565b34801561023b57600080fd5b5061010e61024a366004610f24565b6001602052600090815260409020546001600160a01b031681565b8061026f57600080fd5b6040517f23b872dd000000000000000000000000000000000000000000000000000000008152336004820152306024820152604481018290527f00000000000000000000000000000000000000000000000000000000000000006001600160a01b0316906323b872dd90606401602060405180830381600087803b1580156102f657600080fd5b505af115801561030a573d6000803e3d6000fd5b505050506040513d601f19601f8201168201806040525081019061032e9190610f04565b61037f5760405162461bcd60e51b815260206004820152600f60248201527f5452414e53464552204641494c4544000000000000000000000000000000000060448201526064015b60405180910390fd5b6002600654600a6103909190610fb7565b61039a9083610f54565b815460018101835560009283526020909220909101556006546103be90600a610fb7565b6103c89082610f54565b600360008282546103d99190610f3c565b90915550506002546103ed90600190611080565b336000818152602081905260408120929092556002549091600191610413908390611080565b815260200190815260200160002060006101000a8154816001600160a01b0302191690836001600160a01b0316021790555050565b336000818152602081815260408083205480845260019092529091205490916001600160a01b03909116146104c95760405162461bcd60e51b815260206004820152602160248201527f596f7520446f6e74204861766520416e7920546f6b656e7320537570706c69656044820152601960fa1b6064820152608401610376565b6000818152600160205260409081902054905163a9059cbb60e01b81526001600160a01b039182166004820152602481018490527f00000000000000000000000000000000000000000000000000000000000000009091169063a9059cbb90604401602060405180830381600087803b15801561054557600080fd5b505af1158015610559573d6000803e3d6000fd5b505050506040513d601f19601f8201168201806040525081019061057d9190610f04565b6105c95760405162461bcd60e51b815260206004820152600f60248201527f7472616e73666572206661696c656400000000000000000000000000000000006044820152606401610376565b6006546105d790600a610fb7565b6105e19083610f54565b6002828154811061060257634e487b7160e01b600052603260045260246000fd5b90600052602060002001600082825461061b9190611080565b9091555050600280548290811061064257634e487b7160e01b600052603260045260246000fd5b90600052602060002001546000141561065e5761065e816109ca565b60065461066c90600a610fb7565b6106769083610f54565b600360008282546106879190611080565b90915550505050565b6005546001600160a01b031633146106a757600080fd5b600455565b6000600654600a6106bd9190610fb7565b6106c79083610f54565b905034600454826106d89190611061565b146107255760405162461bcd60e51b815260206004820152601060248201527f6e6f7420456e6f756768205061796564000000000000000000000000000000006044820152606401610376565b600354811161073b5761073781610af3565b5050565b60006003548261074b9190611080565b905060035460001461076257610762600354610af3565b6005546004546000916001600160a01b03169061077f9084611061565b604051600081818185875af1925050503d80600081146107bb576040519150601f19603f3d011682016040523d82523d6000602084013e6107c0565b606091505b50509050806108045760405162461bcd60e51b815260206004820152601060248201526f2a3930b739b332b9103330b4b632b21760811b6044820152606401610376565b6001600160a01b037f0000000000000000000000000000000000000000000000000000000000000000166310c5b32861084584670de0b6b3a7640000611061565b6040517fffffffff0000000000000000000000000000000000000000000000000000000060e084901b1681526004810191909152336024820152604401600060405180830381600087803b15801561089c57600080fd5b505af11580156108b0573d6000803e3d6000fd5b5050505050505050565b33600081815260208181526040808320548084526001909252822054919290916001600160a01b03161461093a5760405162461bcd60e51b815260206004820152602160248201527f596f7520446f6e74204861766520416e7920546f6b656e7320537570706c69656044820152601960fa1b6064820152608401610376565b60065461094890600a610fb7565b6002828154811061096957634e487b7160e01b600052603260045260246000fd5b906000526020600020015461097e9190611061565b91505090565b6005546001600160a01b0316331461099b57600080fd5b6005805473ffffffffffffffffffffffffffffffffffffffff19166001600160a01b0392909216919091179055565b805b6002546109db90600190611080565b811015610aba5760026109ef826001610f3c565b81548110610a0d57634e487b7160e01b600052603260045260246000fd5b906000526020600020015460028281548110610a3957634e487b7160e01b600052603260045260246000fd5b6000918252602082200191909155600190610a548383610f3c565b8152602080820192909252604090810160009081205484825260018452828220805473ffffffffffffffffffffffffffffffffffffffff19166001600160a01b039092169182179055815291829052902081905580610ab281611097565b9150506109cc565b506002805480610ada57634e487b7160e01b600052603160045260246000fd5b6001900381819060005260206000200160009055905550565b6000600654600a610b049190610fb7565b610b0e9083610f54565b9050600354811115610b625760405162461bcd60e51b815260206004820152601160248201527f6e6f7420456e6f75676820537570706c790000000000000000000000000000006044820152606401610376565b60405163a9059cbb60e01b8152336004820152602481018290527f00000000000000000000000000000000000000000000000000000000000000006001600160a01b03169063a9059cbb90604401602060405180830381600087803b158015610bca57600080fd5b505af1158015610bde573d6000803e3d6000fd5b505050506040513d601f19601f82011682018060405250810190610c029190610f04565b610c4e5760405162461bcd60e51b815260206004820152601160248201527f6e6f7420656e6f75676820746f6b656e730000000000000000000000000000006044820152606401610376565b61073781600080825b838314610ed0576000604051806040016040528060028581548110610c8c57634e487b7160e01b600052603260045260246000fd5b60009182526020808320909101548352868252600181526040909120546001600160a01b03169101528051909150821015610de25760008290508060036000828254610cd89190611080565b925050819055508060028581548110610d0157634e487b7160e01b600052603260045260246000fd5b906000526020600020016000828254610d1a9190611080565b90915550610d2a90508184611080565b9250610d368186610f3c565b9450600082602001516001600160a01b031660045483610d569190611061565b604051600081818185875af1925050503d8060008114610d92576040519150601f19603f3d011682016040523d82523d6000602084013e610d97565b606091505b5050905080610ddb5760405162461bcd60e51b815260206004820152601060248201526f2a3930b739b332b9103330b4b632b21760811b6044820152606401610376565b5050610eca565b8051610dee8184611080565b9250816000015160036000828254610e069190611080565b90915550610e16905060006109ca565b8151610e229086610f3c565b9450600082602001516001600160a01b031660045483610e429190611061565b604051600081818185875af1925050503d8060008114610e7e576040519150601f19603f3d011682016040523d82523d6000602084013e610e83565b606091505b5050905080610ec75760405162461bcd60e51b815260206004820152601060248201526f2a3930b739b332b9103330b4b632b21760811b6044820152606401610376565b50505b50610c57565b50505050565b600060208284031215610ee7578081fd5b81356001600160a01b0381168114610efd578182fd5b9392505050565b600060208284031215610f15578081fd5b81518015158114610efd578182fd5b600060208284031215610f35578081fd5b5035919050565b60008219821115610f4f57610f4f6110b2565b500190565b600082610f6f57634e487b7160e01b81526012600452602481fd5b500490565b600181815b80851115610faf578160001904821115610f9557610f956110b2565b80851615610fa257918102915b93841c9390800290610f79565b509250929050565b6000610efd8383600082610fcd5750600161105b565b81610fda5750600061105b565b8160018114610ff05760028114610ffa57611016565b600191505061105b565b60ff84111561100b5761100b6110b2565b50506001821b61105b565b5060208310610133831016604e8410600b8410161715611039575081810a61105b565b6110438383610f74565b8060001904821115611057576110576110b2565b0290505b92915050565b600081600019048311821515161561107b5761107b6110b2565b500290565b600082821015611092576110926110b2565b500390565b60006000198214156110ab576110ab6110b2565b5060010190565b634e487b7160e01b600052601160045260246000fdfea26469706673582212201ff1cd2ca7dc30c3505920bd40db9eb528b6d6be2fba944969dc45d97a3fd9ae64736f6c63430008040033",
  "linkReferences": {},
  "deployedLinkReferences": {}
}