{
  "_format": "hh-sol-artifact-1",
  "contractName": "Token",
  "sourceName": "contracts/Token.sol",
  "abi": [
    {
      "inputs": [
        {
          "internalType": "address",
          "name": "_gameBrain",
          "type": "address"
        }
      ],
      "stateMutability": "nonpayable",
      "type": "constructor"
    },
    {
      "anonymous": false,
      "inputs": [
        {
          "indexed": true,
          "internalType": "address",
          "name": "owner",
          "type": "address"
        },
        {
          "indexed": true,
          "internalType": "address",
          "name": "spender",
          "type": "address"
        },
        {
          "indexed": false,
          "internalType": "uint256",
          "name": "value",
          "type": "uint256"
        }
      ],
      "name": "Approval",
      "type": "event"
    },
    {
      "anonymous": false,
      "inputs": [
        {
          "indexed": true,
          "internalType": "address",
          "name": "from",
          "type": "address"
        },
        {
          "indexed": true,
          "internalType": "address",
          "name": "to",
          "type": "address"
        },
        {
          "indexed": false,
          "internalType": "uint256",
          "name": "value",
          "type": "uint256"
        }
      ],
      "name": "Transfer",
      "type": "event"
    },
    {
      "inputs": [],
      "name": "afterMarket",
      "outputs": [
        {
          "internalType": "address",
          "name": "",
          "type": "address"
        }
      ],
      "stateMutability": "view",
      "type": "function"
    },
    {
      "inputs": [
        {
          "internalType": "address",
          "name": "owner",
          "type": "address"
        },
        {
          "internalType": "address",
          "name": "spender",
          "type": "address"
        }
      ],
      "name": "allowance",
      "outputs": [
        {
          "internalType": "uint256",
          "name": "",
          "type": "uint256"
        }
      ],
      "stateMutability": "view",
      "type": "function"
    },
    {
      "inputs": [
        {
          "internalType": "address",
          "name": "spender",
          "type": "address"
        },
        {
          "internalType": "uint256",
          "name": "amount",
          "type": "uint256"
        }
      ],
      "name": "approve",
      "outputs": [
        {
          "internalType": "bool",
          "name": "",
          "type": "bool"
        }
      ],
      "stateMutability": "nonpayable",
      "type": "function"
    },
    {
      "inputs": [
        {
          "internalType": "address",
          "name": "account",
          "type": "address"
        }
      ],
      "name": "balanceOf",
      "outputs": [
        {
          "internalType": "uint256",
          "name": "",
          "type": "uint256"
        }
      ],
      "stateMutability": "view",
      "type": "function"
    },
    {
      "inputs": [
        {
          "internalType": "uint256",
          "name": "amount",
          "type": "uint256"
        }
      ],
      "name": "burn",
      "outputs": [],
      "stateMutability": "nonpayable",
      "type": "function"
    },
    {
      "inputs": [
        {
          "internalType": "address",
          "name": "newOwner",
          "type": "address"
        }
      ],
      "name": "changeOwner",
      "outputs": [],
      "stateMutability": "nonpayable",
      "type": "function"
    },
    {
      "inputs": [],
      "name": "decimals",
      "outputs": [
        {
          "internalType": "uint8",
          "name": "",
          "type": "uint8"
        }
      ],
      "stateMutability": "view",
      "type": "function"
    },
    {
      "inputs": [
        {
          "internalType": "address",
          "name": "spender",
          "type": "address"
        },
        {
          "internalType": "uint256",
          "name": "subtractedValue",
          "type": "uint256"
        }
      ],
      "name": "decreaseAllowance",
      "outputs": [
        {
          "internalType": "bool",
          "name": "",
          "type": "bool"
        }
      ],
      "stateMutability": "nonpayable",
      "type": "function"
    },
    {
      "inputs": [],
      "name": "gamebrain",
      "outputs": [
        {
          "internalType": "address",
          "name": "",
          "type": "address"
        }
      ],
      "stateMutability": "view",
      "type": "function"
    },
    {
      "inputs": [
        {
          "internalType": "address",
          "name": "spender",
          "type": "address"
        },
        {
          "internalType": "uint256",
          "name": "addedValue",
          "type": "uint256"
        }
      ],
      "name": "increaseAllowance",
      "outputs": [
        {
          "internalType": "bool",
          "name": "",
          "type": "bool"
        }
      ],
      "stateMutability": "nonpayable",
      "type": "function"
    },
    {
      "inputs": [
        {
          "internalType": "address",
          "name": "to",
          "type": "address"
        },
        {
          "internalType": "uint256",
          "name": "amount",
          "type": "uint256"
        }
      ],
      "name": "mintTokens",
      "outputs": [],
      "stateMutability": "nonpayable",
      "type": "function"
    },
    {
      "inputs": [],
      "name": "name",
      "outputs": [
        {
          "internalType": "string",
          "name": "",
          "type": "string"
        }
      ],
      "stateMutability": "view",
      "type": "function"
    },
    {
      "inputs": [],
      "name": "owner",
      "outputs": [
        {
          "internalType": "address",
          "name": "",
          "type": "address"
        }
      ],
      "stateMutability": "view",
      "type": "function"
    },
    {
      "inputs": [
        {
          "internalType": "address",
          "name": "_afterMarket",
          "type": "address"
        }
      ],
      "name": "setAfterMarket",
      "outputs": [],
      "stateMutability": "nonpayable",
      "type": "function"
    },
    {
      "inputs": [
        {
          "internalType": "address",
          "name": "_gameBrain",
          "type": "address"
        }
      ],
      "name": "setGameBrain",
      "outputs": [],
      "stateMutability": "nonpayable",
      "type": "function"
    },
    {
      "inputs": [],
      "name": "symbol",
      "outputs": [
        {
          "internalType": "string",
          "name": "",
          "type": "string"
        }
      ],
      "stateMutability": "view",
      "type": "function"
    },
    {
      "inputs": [],
      "name": "totalSupply",
      "outputs": [
        {
          "internalType": "uint256",
          "name": "",
          "type": "uint256"
        }
      ],
      "stateMutability": "view",
      "type": "function"
    },
    {
      "inputs": [
        {
          "internalType": "address",
          "name": "to",
          "type": "address"
        },
        {
          "internalType": "uint256",
          "name": "amount",
          "type": "uint256"
        }
      ],
      "name": "transfer",
      "outputs": [
        {
          "internalType": "bool",
          "name": "",
          "type": "bool"
        }
      ],
      "stateMutability": "nonpayable",
      "type": "function"
    },
    {
      "inputs": [
        {
          "internalType": "address",
          "name": "from",
          "type": "address"
        },
        {
          "internalType": "address",
          "name": "to",
          "type": "address"
        },
        {
          "internalType": "uint256",
          "name": "amount",
          "type": "uint256"
        }
      ],
      "name": "transferFrom",
      "outputs": [
        {
          "internalType": "bool",
          "name": "",
          "type": "bool"
        }
      ],
      "stateMutability": "nonpayable",
      "type": "function"
    }
  ],
  "bytecode": "0x60806040523480156200001157600080fd5b50604051620010fc380380620010fc833981016040819052620000349162000180565b6040518060400160405280600b81526020016a484f54444f47204641434560a81b8152506040518060400160405280600381526020016224222360e91b81525081600390805190602001906200008c929190620000da565b508051620000a2906004906020840190620000da565b505060068054336001600160a01b031991821617909155600780549091166001600160a01b03939093169290921790915550620001ed565b828054620000e890620001b0565b90600052602060002090601f0160209004810192826200010c576000855562000157565b82601f106200012757805160ff191683800117855562000157565b8280016001018555821562000157579182015b82811115620001575782518255916020019190600101906200013a565b506200016592915062000169565b5090565b5b808211156200016557600081556001016200016a565b60006020828403121562000192578081fd5b81516001600160a01b0381168114620001a9578182fd5b9392505050565b600181811c90821680620001c557607f821691505b60208210811415620001e757634e487b7160e01b600052602260045260246000fd5b50919050565b610eff80620001fd6000396000f3fe608060405234801561001057600080fd5b50600436106101515760003560e01c80636709ad93116100cd578063a6f9dae111610081578063abc948eb11610066578063abc948eb146102c1578063dd62ed3e146102d4578063f0dda65c1461030d57600080fd5b8063a6f9dae11461029b578063a9059cbb146102ae57600080fd5b80638da5cb5b116100b25780638da5cb5b1461026d57806395d89b4114610280578063a457c2d71461028857600080fd5b80636709ad931461023157806370a082311461024457600080fd5b806323b872dd11610124578063313ce56711610109578063313ce567146101fc578063395093511461020b57806342966c681461021e57600080fd5b806323b872dd146101d457806327e90bc2146101e757600080fd5b806306fdde0314610156578063095ea7b314610174578063142f9cfd1461019757806318160ddd146101c2575b600080fd5b61015e610320565b60405161016b9190610df6565b60405180910390f35b610187610182366004610db5565b6103b2565b604051901515815260200161016b565b6007546101aa906001600160a01b031681565b6040516001600160a01b03909116815260200161016b565b6002545b60405190815260200161016b565b6101876101e2366004610d7a565b6103ca565b6101fa6101f5366004610d27565b6103ee565b005b6040516012815260200161016b565b610187610219366004610db5565b61047c565b6101fa61022c366004610dde565b6104bb565b6005546101aa906001600160a01b031681565b6101c6610252366004610d27565b6001600160a01b031660009081526020819052604090205490565b6006546101aa906001600160a01b031681565b61015e6104c8565b610187610296366004610db5565b6104d7565b6101fa6102a9366004610d27565b610581565b6101876102bc366004610db5565b6105c7565b6101fa6102cf366004610d27565b6105d5565b6101c66102e2366004610d48565b6001600160a01b03918216600090815260016020908152604080832093909416825291909152205490565b6101fa61031b366004610db5565b61061b565b60606003805461032f90610e78565b80601f016020809104026020016040519081016040528092919081815260200182805461035b90610e78565b80156103a85780601f1061037d576101008083540402835291602001916103a8565b820191906000526020600020905b81548152906001019060200180831161038b57829003601f168201915b5050505050905090565b6000336103c08185856106ad565b5060019392505050565b6000336103d8858285610806565b6103e3858585610898565b506001949350505050565b6006546001600160a01b0316331461044d5760405162461bcd60e51b815260206004820152600e60248201527f4e6f7420417574686f72697a656400000000000000000000000000000000000060448201526064015b60405180910390fd5b6007805473ffffffffffffffffffffffffffffffffffffffff19166001600160a01b0392909216919091179055565b3360008181526001602090815260408083206001600160a01b03871684529091528120549091906103c090829086906104b6908790610e49565b6106ad565b6104c53382610aaf565b50565b60606004805461032f90610e78565b3360008181526001602090815260408083206001600160a01b0387168452909152812054909190838110156105745760405162461bcd60e51b815260206004820152602560248201527f45524332303a2064656372656173656420616c6c6f77616e63652062656c6f7760448201527f207a65726f0000000000000000000000000000000000000000000000000000006064820152608401610444565b6103e382868684036106ad565b6006546001600160a01b0316331461059857600080fd5b6006805473ffffffffffffffffffffffffffffffffffffffff19166001600160a01b0392909216919091179055565b6000336103c0818585610898565b6006546001600160a01b031633146105ec57600080fd5b6005805473ffffffffffffffffffffffffffffffffffffffff19166001600160a01b0392909216919091179055565b6005546001600160a01b031633148061063e57506006546001600160a01b031633145b8061065357506007546001600160a01b031633145b61069f5760405162461bcd60e51b815260206004820152600e60248201527f4e6f7420417574686f72697a65640000000000000000000000000000000000006044820152606401610444565b6106a98282610c2c565b5050565b6001600160a01b0383166107285760405162461bcd60e51b8152602060048201526024808201527f45524332303a20617070726f76652066726f6d20746865207a65726f2061646460448201527f72657373000000000000000000000000000000000000000000000000000000006064820152608401610444565b6001600160a01b0382166107a45760405162461bcd60e51b815260206004820152602260248201527f45524332303a20617070726f766520746f20746865207a65726f20616464726560448201527f73730000000000000000000000000000000000000000000000000000000000006064820152608401610444565b6001600160a01b0383811660008181526001602090815260408083209487168084529482529182902085905590518481527f8c5be1e5ebec7d5bd14f71427d1e84f3dd0314c0f7b2291e5b200ac8c7c3b92591015b60405180910390a3505050565b6001600160a01b03838116600090815260016020908152604080832093861683529290522054600019811461089257818110156108855760405162461bcd60e51b815260206004820152601d60248201527f45524332303a20696e73756666696369656e7420616c6c6f77616e63650000006044820152606401610444565b61089284848484036106ad565b50505050565b6001600160a01b0383166109145760405162461bcd60e51b815260206004820152602560248201527f45524332303a207472616e736665722066726f6d20746865207a65726f20616460448201527f64726573730000000000000000000000000000000000000000000000000000006064820152608401610444565b6001600160a01b0382166109905760405162461bcd60e51b815260206004820152602360248201527f45524332303a207472616e7366657220746f20746865207a65726f206164647260448201527f65737300000000000000000000000000000000000000000000000000000000006064820152608401610444565b6001600160a01b03831660009081526020819052604090205481811015610a1f5760405162461bcd60e51b815260206004820152602660248201527f45524332303a207472616e7366657220616d6f756e742065786365656473206260448201527f616c616e636500000000000000000000000000000000000000000000000000006064820152608401610444565b6001600160a01b03808516600090815260208190526040808220858503905591851681529081208054849290610a56908490610e49565b92505081905550826001600160a01b0316846001600160a01b03167fddf252ad1be2c89b69c2b068fc378daa952ba7f163c4a11628f55a4df523b3ef84604051610aa291815260200190565b60405180910390a3610892565b6001600160a01b038216610b2b5760405162461bcd60e51b815260206004820152602160248201527f45524332303a206275726e2066726f6d20746865207a65726f2061646472657360448201527f73000000000000000000000000000000000000000000000000000000000000006064820152608401610444565b6001600160a01b03821660009081526020819052604090205481811015610bba5760405162461bcd60e51b815260206004820152602260248201527f45524332303a206275726e20616d6f756e7420657863656564732062616c616e60448201527f63650000000000000000000000000000000000000000000000000000000000006064820152608401610444565b6001600160a01b0383166000908152602081905260408120838303905560028054849290610be9908490610e61565b90915550506040518281526000906001600160a01b038516907fddf252ad1be2c89b69c2b068fc378daa952ba7f163c4a11628f55a4df523b3ef906020016107f9565b6001600160a01b038216610c825760405162461bcd60e51b815260206004820152601f60248201527f45524332303a206d696e7420746f20746865207a65726f2061646472657373006044820152606401610444565b8060026000828254610c949190610e49565b90915550506001600160a01b03821660009081526020819052604081208054839290610cc1908490610e49565b90915550506040518181526001600160a01b038316906000907fddf252ad1be2c89b69c2b068fc378daa952ba7f163c4a11628f55a4df523b3ef9060200160405180910390a35050565b80356001600160a01b0381168114610d2257600080fd5b919050565b600060208284031215610d38578081fd5b610d4182610d0b565b9392505050565b60008060408385031215610d5a578081fd5b610d6383610d0b565b9150610d7160208401610d0b565b90509250929050565b600080600060608486031215610d8e578081fd5b610d9784610d0b565b9250610da560208501610d0b565b9150604084013590509250925092565b60008060408385031215610dc7578182fd5b610dd083610d0b565b946020939093013593505050565b600060208284031215610def578081fd5b5035919050565b6000602080835283518082850152825b81811015610e2257858101830151858201604001528201610e06565b81811115610e335783604083870101525b50601f01601f1916929092016040019392505050565b60008219821115610e5c57610e5c610eb3565b500190565b600082821015610e7357610e73610eb3565b500390565b600181811c90821680610e8c57607f821691505b60208210811415610ead57634e487b7160e01b600052602260045260246000fd5b50919050565b634e487b7160e01b600052601160045260246000fdfea26469706673582212206aab59b22e06945fd8222cb4eca761a57c9eb12365571462c9af98b38d51eab964736f6c63430008040033",
  "linkReferences": {},
  "deployedLinkReferences": {}
}