{
  "_format": "hh-sol-artifact-1",
  "contractName": "af",
  "sourceName": "contracts/af.sol",
  "abi": [
    {
      "inputs": [
        {
          "internalType": "address",
          "name": "_targetToken",
          "type": "address"
        },
        {
          "internalType": "uint256",
          "name": "_price",
          "type": "uint256"
        },
        {
          "internalType": "uint256",
          "name": "_tokenDecimals",
          "type": "uint256"
        }
      ],
      "stateMutability": "nonpayable",
      "type": "constructor"
    },
    {
      "inputs": [],
      "name": "amountSupplied",
      "outputs": [
        {
          "internalType": "uint256",
          "name": "",
          "type": "uint256"
        }
      ],
      "stateMutability": "view",
      "type": "function"
    },
    {
      "inputs": [
        {
          "internalType": "address",
          "name": "newManager",
          "type": "address"
        }
      ],
      "name": "changeManager",
      "outputs": [],
      "stateMutability": "nonpayable",
      "type": "function"
    },
    {
      "inputs": [],
      "name": "currentSupply",
      "outputs": [
        {
          "internalType": "uint256",
          "name": "",
          "type": "uint256"
        }
      ],
      "stateMutability": "view",
      "type": "function"
    },
    {
      "inputs": [
        {
          "internalType": "uint256",
          "name": "_amount",
          "type": "uint256"
        }
      ],
      "name": "fullfillOrder",
      "outputs": [],
      "stateMutability": "payable",
      "type": "function"
    },
    {
      "inputs": [],
      "name": "getSuppliersAmount",
      "outputs": [
        {
          "internalType": "uint256",
          "name": "",
          "type": "uint256"
        }
      ],
      "stateMutability": "view",
      "type": "function"
    },
    {
      "inputs": [
        {
          "internalType": "uint256",
          "name": "",
          "type": "uint256"
        }
      ],
      "name": "indexToSupplier",
      "outputs": [
        {
          "internalType": "address",
          "name": "",
          "type": "address"
        }
      ],
      "stateMutability": "view",
      "type": "function"
    },
    {
      "inputs": [],
      "name": "manager",
      "outputs": [
        {
          "internalType": "address",
          "name": "",
          "type": "address"
        }
      ],
      "stateMutability": "view",
      "type": "function"
    },
    {
      "inputs": [],
      "name": "price",
      "outputs": [
        {
          "internalType": "uint256",
          "name": "",
          "type": "uint256"
        }
      ],
      "stateMutability": "view",
      "type": "function"
    },
    {
      "inputs": [
        {
          "internalType": "address",
          "name": "",
          "type": "address"
        }
      ],
      "name": "supplierToIndex",
      "outputs": [
        {
          "internalType": "uint256",
          "name": "",
          "type": "uint256"
        }
      ],
      "stateMutability": "view",
      "type": "function"
    },
    {
      "inputs": [
        {
          "internalType": "uint256",
          "name": "supplyAmount",
          "type": "uint256"
        }
      ],
      "name": "supplyToken",
      "outputs": [],
      "stateMutability": "nonpayable",
      "type": "function"
    },
    {
      "inputs": [
        {
          "internalType": "uint256",
          "name": "newPrice",
          "type": "uint256"
        }
      ],
      "name": "updatePrice",
      "outputs": [],
      "stateMutability": "nonpayable",
      "type": "function"
    },
    {
      "inputs": [
        {
          "internalType": "uint256",
          "name": "withdrawAmount",
          "type": "uint256"
        }
      ],
      "name": "withdrawToken",
      "outputs": [],
      "stateMutability": "nonpayable",
      "type": "function"
    }
  ],
  "bytecode": "0x60a060405234801561001057600080fd5b5060405161104038038061104083398101604081905261002f91610064565b60609290921b6001600160601b03191660805260069190915560045560058054336001600160a01b03199091161790556100a5565b600080600060608486031215610078578283fd5b83516001600160a01b038116811461008e578384fd5b602085015160409095015190969495509392505050565b60805160601c610f6f6100d1600039600081816102aa015281816104ff01526108a30152610f6f6000f3fe6080604052600436106100c75760003560e01c8063976ffa2711610074578063a3fbbaae1161004e578063a3fbbaae146101fc578063af9ae92a1461021c578063db4f702b1461022f57600080fd5b8063976ffa27146101a45780639ec8ef77146101d1578063a035b1fe146101e657600080fd5b8063771282f6116100a5578063771282f61461014b578063790391de1461016f5780638d6cc56d1461018457600080fd5b806305322503146100cc578063481c6a75146100ee57806350baa6221461012b575b600080fd5b3480156100d857600080fd5b506100ec6100e7366004610d95565b610265565b005b3480156100fa57600080fd5b5060055461010e906001600160a01b031681565b6040516001600160a01b0390911681526020015b60405180910390f35b34801561013757600080fd5b506100ec610146366004610d95565b610448565b34801561015757600080fd5b5061016160035481565b604051908152602001610122565b34801561017b57600080fd5b50600254610161565b34801561019057600080fd5b506100ec61019f366004610d95565b610690565b3480156101b057600080fd5b506101616101bf366004610d47565b60006020819052908152604090205481565b3480156101dd57600080fd5b506101616106ac565b3480156101f257600080fd5b5061016160045481565b34801561020857600080fd5b506100ec610217366004610d47565b610776565b6100ec61022a366004610d95565b6107bc565b34801561023b57600080fd5b5061010e61024a366004610d95565b6001602052600090815260409020546001600160a01b031681565b8061026f57600080fd5b6040517f23b872dd000000000000000000000000000000000000000000000000000000008152336004820152306024820152604481018290527f00000000000000000000000000000000000000000000000000000000000000006001600160a01b0316906323b872dd90606401602060405180830381600087803b1580156102f657600080fd5b505af115801561030a573d6000803e3d6000fd5b505050506040513d601f19601f8201168201806040525081019061032e9190610d75565b61037f5760405162461bcd60e51b815260206004820152600f60248201527f5452414e53464552204641494c4544000000000000000000000000000000000060448201526064015b60405180910390fd5b6002600654600a6103909190610e28565b61039a9083610dc5565b815460018101835560009283526020909220909101556006546103be90600a610e28565b6103c89082610dc5565b600360008282546103d99190610dad565b90915550506002546103ed90600190610ef1565b336000818152602081905260408120929092556002549091600191610413908390610ef1565b815260200190815260200160002060006101000a8154816001600160a01b0302191690836001600160a01b0316021790555050565b336000818152602081815260408083205480845260019092529091205490916001600160a01b03909116146104c95760405162461bcd60e51b815260206004820152602160248201527f596f7520446f6e74204861766520416e7920546f6b656e7320537570706c69656044820152601960fa1b6064820152608401610376565b6000818152600160205260409081902054905163a9059cbb60e01b81526001600160a01b039182166004820152602481018490527f00000000000000000000000000000000000000000000000000000000000000009091169063a9059cbb90604401602060405180830381600087803b15801561054557600080fd5b505af1158015610559573d6000803e3d6000fd5b505050506040513d601f19601f8201168201806040525081019061057d9190610d75565b6105c95760405162461bcd60e51b815260206004820152600f60248201527f7472616e73666572206661696c656400000000000000000000000000000000006044820152606401610376565b6006546105d790600a610e28565b6105e19083610dc5565b6002828154811061060257634e487b7160e01b600052603260045260246000fd5b90600052602060002001600082825461061b9190610ef1565b9091555050600280548290811061064257634e487b7160e01b600052603260045260246000fd5b90600052602060002001546000141561065e5761065e81610980565b60065461066c90600a610e28565b6106769083610dc5565b600360008282546106879190610ef1565b90915550505050565b6005546001600160a01b031633146106a757600080fd5b600455565b33600081815260208181526040808320548084526001909252822054919290916001600160a01b03161461072c5760405162461bcd60e51b815260206004820152602160248201527f596f7520446f6e74204861766520416e7920546f6b656e7320537570706c69656044820152601960fa1b6064820152608401610376565b60065461073a90600a610e28565b6002828154811061075b57634e487b7160e01b600052603260045260246000fd5b90600052602060002001546107709190610ed2565b91505090565b6005546001600160a01b0316331461078d57600080fd5b6005805473ffffffffffffffffffffffffffffffffffffffff19166001600160a01b0392909216919091179055565b6000600654600a6107cd9190610e28565b6107d79083610dc5565b905060035481111561082b5760405162461bcd60e51b815260206004820152601160248201527f6e6f7420456e6f75676820537570706c790000000000000000000000000000006044820152606401610376565b346004548261083a9190610ed2565b146108875760405162461bcd60e51b815260206004820152601060248201527f6e6f7420456e6f756768205061796564000000000000000000000000000000006044820152606401610376565b60405163a9059cbb60e01b8152336004820152602481018290527f00000000000000000000000000000000000000000000000000000000000000006001600160a01b03169063a9059cbb90604401602060405180830381600087803b1580156108ef57600080fd5b505af1158015610903573d6000803e3d6000fd5b505050506040513d601f19601f820116820180604052508101906109279190610d75565b6109735760405162461bcd60e51b815260206004820152601160248201527f6e6f7420656e6f75676820746f6b656e730000000000000000000000000000006044820152606401610376565b61097c81610aa9565b5050565b805b60025461099190600190610ef1565b811015610a705760026109a5826001610dad565b815481106109c357634e487b7160e01b600052603260045260246000fd5b9060005260206000200154600282815481106109ef57634e487b7160e01b600052603260045260246000fd5b6000918252602082200191909155600190610a0a8383610dad565b8152602080820192909252604090810160009081205484825260018452828220805473ffffffffffffffffffffffffffffffffffffffff19166001600160a01b039092169182179055815291829052902081905580610a6881610f08565b915050610982565b506002805480610a9057634e487b7160e01b600052603160045260246000fd5b6001900381819060005260206000200160009055905550565b600080825b838314610d41576000604051806040016040528060028581548110610ae357634e487b7160e01b600052603260045260246000fd5b60009182526020808320909101548352868252600181526040909120546001600160a01b03169101528051909150821015610c465760008290508060036000828254610b2f9190610ef1565b925050819055508060028581548110610b5857634e487b7160e01b600052603260045260246000fd5b906000526020600020016000828254610b719190610ef1565b90915550610b8190508184610ef1565b9250610b8d8186610dad565b9450600082602001516001600160a01b031660045483610bad9190610ed2565b604051600081818185875af1925050503d8060008114610be9576040519150601f19603f3d011682016040523d82523d6000602084013e610bee565b606091505b5050905080610c3f5760405162461bcd60e51b815260206004820152601060248201527f5472616e73666572206661696c65642e000000000000000000000000000000006044820152606401610376565b5050610d3b565b8051610c528184610ef1565b9250816000015160036000828254610c6a9190610ef1565b90915550610c7a90506000610980565b8151610c869086610dad565b9450600082602001516001600160a01b031660045483610ca69190610ed2565b604051600081818185875af1925050503d8060008114610ce2576040519150601f19603f3d011682016040523d82523d6000602084013e610ce7565b606091505b5050905080610d385760405162461bcd60e51b815260206004820152601060248201527f5472616e73666572206661696c65642e000000000000000000000000000000006044820152606401610376565b50505b50610aae565b50505050565b600060208284031215610d58578081fd5b81356001600160a01b0381168114610d6e578182fd5b9392505050565b600060208284031215610d86578081fd5b81518015158114610d6e578182fd5b600060208284031215610da6578081fd5b5035919050565b60008219821115610dc057610dc0610f23565b500190565b600082610de057634e487b7160e01b81526012600452602481fd5b500490565b600181815b80851115610e20578160001904821115610e0657610e06610f23565b80851615610e1357918102915b93841c9390800290610dea565b509250929050565b6000610d6e8383600082610e3e57506001610ecc565b81610e4b57506000610ecc565b8160018114610e615760028114610e6b57610e87565b6001915050610ecc565b60ff841115610e7c57610e7c610f23565b50506001821b610ecc565b5060208310610133831016604e8410600b8410161715610eaa575081810a610ecc565b610eb48383610de5565b8060001904821115610ec857610ec8610f23565b0290505b92915050565b6000816000190483118215151615610eec57610eec610f23565b500290565b600082821015610f0357610f03610f23565b500390565b6000600019821415610f1c57610f1c610f23565b5060010190565b634e487b7160e01b600052601160045260246000fdfea264697066735822122057e9fe3e8f5f05174ade307e7d565ffd4ed97384b94fc08e78409bae846bf91b64736f6c63430008040033",
  "linkReferences": {},
  "deployedLinkReferences": {}
}